:020000040000FA
:100000000C9462000C948A000C948A000C948A0070
:100010000C948A000C948A000C948A000C948A0038
:100020000C948A000C948A000C948A000C948A0028
:100030000C948A000C948A000C948A000C948A0018
:100040000C94ED030C948A000C945D040C9437041A
:100050000C948A000C948A000C948A000C948A00F8
:100060000C948A000C948A000000000024002700F1
:100070002A0000000000250028002B0000000000DE
:1000800023002600290004040404040404040202DA
:100090000202020203030303030301020408102007
:1000A0004080010204081020010204081020000012
:1000B0000008000201000003040700000000000027
:1000C00000007F0811241FBECFEFD8E0DEBFCDBFF8
:1000D00011E0A0E0B1E0E8E6F1E102C005900D9288
:1000E000AC31B107D9F722E0ACE1B1E001C01D921B
:1000F000A43EB207E1F710E0C2E6D0E004C02197C9
:10010000FE010E94AC08C136D107C9F70E948F04D6
:100110000C94B2080C940000833081F028F48130F4
:1001200099F08230A9F008958730A9F08830C9F09D
:100130008430B1F4809180008F7D03C08091800075
:100140008F7780938000089584B58F7784BD08955C
:1001500084B58F7DFBCF8091B0008F778093B00006
:1001600008958091B0008F7DF9CF1F93CF93DF93D7
:10017000282F30E0F901E255FF4F8491F901E6564E
:10018000FF4FD491F901EA57FF4FC491CC23A9F056
:10019000162F81110E948C00EC2FF0E0EE0FFF1F54
:1001A000EE58FF4FA591B4918FB7F894EC911111CF
:1001B00008C0D095DE23DC938FBFDF91CF911F91D4
:1001C0000895DE2BF8CF8F929F92AF92BF92CF927D
:1001D000DF92EF92FF920F931F93CF93DF93C82F7D
:1001E00008E010E06AEBE62E60E0F62E76EAC72E15
:1001F00070E0D72EE2E9AE2EE0E0BE2E6C2F661F37
:100200006627661F8BE00E94B50061E08DE00E94CA
:10021000B50080914302909144028230910538F0FC
:10022000880F991F880F991F05970197F1F78C2E5A
:10023000912C880C991CF7018491F601C491F50169
:10024000D491DD2379F081110E948C00ED2FF0E034
:10025000EE0FFF1FE458FF4FA591B4918C918C23B2
:10026000C1E009F4C0E0C82960E08DE00E94B5005B
:1002700080914302909144028230910538F0880FBA
:10028000991F880F991F05970197F1F701501109E0
:1002900009F0B4CF8C2FDF91CF911F910F91FF9078
:1002A000EF90DF90CF90BF90AF909F908F90089588
:1002B000CF93DF9390E0FC01E656FF4F24918A57DD
:1002C0009F4FFC0184918823D1F090E0880F991F03
:1002D000FC01E859FF4FA591B491FC01EE58FF4F86
:1002E000C591D49161110EC09FB7F8948C91E22F03
:1002F000E0958E238C932881E223E8839FBFDF91D2
:10030000CF9108958FB7F894EC91E22BEC938FBFC7
:10031000F6CF3FB7F89480913F0290914002A091B0
:100320004102B091420226B5A89B05C02F3F19F0AB
:100330000196A11DB11D3FBFBA2FA92F982F882765
:10034000BC01CD01620F711D811D911D42E0660F40
:10035000771F881F991F4A95D1F708958F929F9212
:10036000AF92BF92CF92DF92EF92FF924B015C016E
:100370000E9489016B017C010E9489016C197D0931
:100380008E099F09683E734081059105A8F321E01D
:10039000821A9108A108B10888EEC80E83E0D81E21
:1003A000E11CF11C81149104A104B10429F7FF9010
:1003B000EF90DF90CF90BF90AF909F908F90089577
:1003C0001F93CF93DF93182FC3E0D0E061E0812F1C
:1003D0000E94B5006EE170E080E090E00E94AE0106
:1003E00060E0812F0E94B5006EE170E080E090E057
:1003F0000E94AE01219751F7DF91CF911F9108958F
:10040000AF92BF92CF92DF92EF92FF920F931F9322
:10041000CF93DF936C017B018B01040F151FEB0160
:100420005E01AE18BF08C017D10759F06991D60117
:10043000ED91FC910190F081E02DC6010995892B89
:1004400079F7C501DF91CF911F910F91FF90EF9048
:10045000DF90CF90BF90AF900895FC01538D448DF5
:10046000252F30E0842F90E0821B930B541710F05F
:10047000CF96089501970895FC01918D828D98176C
:1004800061F0A28DAE0FBF2FB11D5D968C91928D44
:100490009F5F9F73928F90E008958FEF9FEF089575
:1004A000FC01918D828D981731F0828DE80FF11D3E
:1004B000858D90E008958FEF9FEF0895FC01918D59
:1004C000228D892F90E0805C9F4F821B91098F7352
:1004D0009927089587E492E00E945E0221E0892B2B
:1004E00009F420E0822F089580E090E0892B29F024
:1004F0000E946A0281110C9400000895FC01A48DF1
:10050000A80FB92FB11DA35ABF4F2C91848D90E035
:1005100001968F739927848FA689B7892C93A08918
:10052000B1898C91837080648C93938D848D9813A2
:1005300006C00288F389E02D80818F7D8083089535
:10054000EF92FF920F931F93CF93DF93EC0181E023
:10055000888F9B8D8C8D98131AC0E889F9898081CA
:1005600085FF15C09FB7F894EE89FF896083E889FD
:10057000F98980818370806480839FBF81E090E0EF
:10058000DF91CF911F910F91FF90EF900895F62E7C
:100590000B8D10E00F5F1F4F0F731127E02E8C8D16
:1005A0008E110CC00FB607FCFACFE889F98980815B
:1005B00085FFF5CFCE010E947E02F1CFEB8DEC0FCF
:1005C000FD2FF11DE35AFF4FF0829FB7F8940B8F78
:1005D000EA89FB8980818062CFCF682F87E492E02F
:1005E0000C94A002CF93DF93EC01888D8823B9F09F
:1005F000AA89BB89E889F9898C9185FD03C080812E
:1006000086FD0DC00FB607FCF7CF8C9185FFF2CFAA
:10061000808185FFEDCFCE010E947E02E9CFDF9180
:10062000CF91089580913602909137020196909370
:1006300037028093360285E10C94ED0220912B0164
:1006400030912C0180913402909135022032310595
:1006500011F4807F08952034310511F4807E0895CF
:100660002038310511F4807C08952115314009F4BA
:10067000807808951F93CF93DF93162FD42FC22F26
:100680000E94E300812F0E94E3008D2F0E94E3006F
:100690008C2FDF91CF911F910C94E300CF93DF93C8
:1006A000D82FC92F60E087E00E94B50020E04D2FD1
:1006B0006C2F8CE40E943A036EE170E080E090E0E1
:1006C0000E94AE0161E087E0DF91CF910C94B5000C
:1006D00087E492E00E945E02892BD1F387E492E0E6
:1006E0000E943C020895CF93C82F0E946803803275
:1006F00051F484E10E94ED028C2F0E94ED0280E112
:10070000CF910C94ED0280913602909137020196C0
:10071000909337028093360285E1F2CF0E946803FE
:10072000803231F484E10E94ED0280E10C94ED020C
:100730008091360290913702019690933702809310
:10074000360285E1F3CF0F931F93CF93DF938C0194
:10075000C3E3D1E0CE01835391408017910724F485
:100760000E9468038993F6CFDF91CF911F910F917B
:100770000895EF92FF920F931F93CF93DF93EC01B5
:100780008B01CB010E94A30360E087E00E94B500CB
:1007900083E3E82E81E0F82E0C0F1D1FC017D10750
:1007A00081F0F70121917F014C2F6D2F80EC0E9489
:1007B0003A036DE270E080E090E00E94AE01219685
:1007C000EDCF61E087E00E94B50080E1DF91CF913D
:1007D0001F910F91FF90EF9008951F920F920FB607
:1007E0000F9211242F933F938F939F93AF93BF93B7
:1007F00080913B0290913C02A0913D02B0913E025B
:1008000030913A0223E0230F2D3758F50196A11DB0
:10081000B11D20933A0280933B0290933C02A09337
:100820003D02B0933E0280913F0290914002A09120
:100830004102B09142020196A11DB11D80933F0279
:1008400090934002A0934102B0934202BF91AF91B6
:100850009F918F913F912F910F900FBE0F901F90FE
:10086000189526E8230F0296A11DB11DD2CF1F9225
:100870000F920FB60F9211242F933F934F935F93D4
:100880006F937F938F939F93AF93BF93EF93FF9358
:1008900087E492E00E947E02FF91EF91BF91AF91B9
:1008A0009F918F917F916F915F914F913F912F9188
:1008B0000F900FBE0F901F9018951F920F920FB6BA
:1008C0000F9211242F938F939F93EF93FF93E091B7
:1008D0005702F09158028081E0915D02F0915E0232
:1008E00082FD1BC09081809160028F5F8F73209189
:1008F0006102821741F0E0916002F0E0E95BFD4F98
:10090000958F80936002FF91EF919F918F912F912E
:100910000F900FBE0F901F9018958081F4CF7894A0
:1009200084B5826084BD84B5816084BD85B58260F4
:1009300085BD85B5816085BD80916E0081608093A5
:100940006E0010928100809181008260809381000E
:10095000809181008160809381008091800081601E
:10096000809380008091B10084608093B100809179
:10097000B00081608093B00080917A0084608093A1
:100980007A0080917A00826080937A0080917A0068
:10099000816080937A0080917A00806880937A00E9
:1009A0001092C100E0915702F091580282E08083DA
:1009B000E0915302F09154021082E0915502F091BF
:1009C000560287E6808310925F02E0915B02F0910D
:1009D0005C0286E08083E0915902F0915A028081A6
:1009E00080618083E0915902F0915A028081886091
:1009F0008083E0915902F0915A028081806880835F
:100A0000E0915902F0915A0280818F7D808361E0EC
:100A100087E00E94580187E090E00E94E00161E0D9
:100A200088E00E94580188E090E00E94E00161E0C7
:100A300089E00E94580189E090E00E94E0011BE8F3
:100A4000412E5524539400E0202E00E0302E88E102
:100A5000882E912CA12CB12C66246394712C80914A
:100A600038029091390261E0892B09F460E087E057
:100A70000E94B500809136029091370261E0892B87
:100A800009F460E088E00E94B5002FB7F8948091E7
:100A90003B0290913C02A0913D02B0913E022FBFDB
:100AA00040911C0150911D0160911E0170911F0128
:100AB0008C019D01041B150B260B370BB901A801F6
:100AC000483251056105710518F180931C0190931E
:100AD0001D01A0931E01B0931F01C09101018091DF
:100AE0000001C13C20F081958093000102C0C0321A
:100AF000D0F380910001C80FC093010161E089E04B
:100B00000E945801C1112BC060E089E00E94B5002D
:100B100087E492E00E945E02892B09F431C20E94B0
:100B20006803813509F49EC208F0ECC0813409F4F1
:100B300076C108F05BC0803309F458C1813309F4F1
:100B40005CC1803209F0CBC28091360290913702AD
:100B50000196909337028093360285E106C2CF3F1B
:100B600011F461E0D2CFE7EBF0E08491833019F12A
:100B700038F48130B1F08230C9F0C7FDF2CFC4CF74
:100B8000873021F1883051F18430B9F780918000AD
:100B9000806280938000D0E0D0938B00C0938A0065
:100BA000B7CF84B5806884BDC7BDB2CF84B580623D
:100BB00084BDC8BDADCF80918000806880938000E7
:100BC000D0E0D0938900C0938800A2CF8091B0007C
:100BD00080688093B000C093B3009ACF8091B0003A
:100BE00080628093B000C093B40092CF853409F442
:100BF0002DC1803509F42FC1823409F070C284E11F
:100C000090E00E94A3032091330120932001809162
:100C100034018093210180913501809322018091DC
:100C200036018093230180913701809324018091C4
:100C300038018093250180913901809326018091AC
:100C40003A018093270180913B0180932801809194
:100C50003D0190E0982F882730913E01830F911D30
:100C600090932A018093290180913F0190E0982F71
:100C7000882730914001830F911D90932C01809320
:100C80002B018091410190E0982F882730914201FB
:100C9000830F911D90932E0180932D01809143012C
:100CA00090E0B0E0A0E0BA2FA92F982F88273091CC
:100CB0004401830F911DA11DB11DDC0199278827D7
:100CC0004091450150E0542F4427052E000C660B3F
:100CD000770B840F951FA61FB71F30914601830F16
:100CE000911DA11DB11D80932F0190933001A09300
:100CF0003101B093320181E0203E08F480E080931E
:100D0000330278C0813609F4FBC0C0F4863509F49B
:100D10009AC1803609F4F2C0853509F0E0C10E941D
:100D20006803C82F0E94680390E0982F88278C0FD3
:100D3000911D90933502809334025CC0843709F48E
:100D40002BC1853709F4AAC1843609F0C8C10E94B5
:100D50006803C82FD0E0DC2FCC270E946803C80F9F
:100D6000D11D0E946803863409F0D1C0CE010E94D3
:100D7000A3030E946803803209F0E6CE84E10E945A
:100D8000ED020E941E036C0133E3E32E31E0F32EEB
:100D9000C701835391408C179D070CF0B4C00E948B
:100DA0001E038C159D0531F0C6010E944E030E9462
:100DB0001E036C010091340210913502F70120816D
:100DC000402F612F80E40E943A03F7012181402FD8
:100DD000612F88E40E943A030F5F1F4F1093350282
:100DE00000933402F2E0EF0EF11CD2CF10923702E2
:100DF000109236020E948E03C3C00E9468038032A4
:100E000009F0A2CE84E10E94ED0247E050E064E1E7
:100E100071E087E492E00E94000280E1A6C00E9497
:100E20006803813879F020F4803841F080E007C011
:100E3000823851F08339D1F783E501C082E00E9406
:100E400073039EC081E0FBCF82E1F9CF85E090E0A3
:100E50000E94A303CFCF8091380290913902892B51
:100E600049F6C09133026C2F8AE00E94B50061E020
:100E70008AE00E94580160E08DE00E94B50060E0C9
:100E80008BE00E94B50061E08DE00E94580161E0B6
:100E90008BE00E94580160E08CE00E945801809233
:100EA000430290924402A0924502B092460260E052
:100EB0008DE00E94B50064E170E080E090E00E9467
:100EC000AE0161E06C278AE00E94B500C201019783
:100ED000F1F76C2F8AE00E94B50062E370E080E0D9
:100EE00090E00E94AE0120E040E063E58CEA0E94C1
:100EF0003A0370923902609238027CCF0E946803F4
:100F00000E94680377CFC6010E944E0386CF8534C6
:100F100009F097C080912D0190912E018C179D07AB
:100F200090F00091340210913502000F111FC13270
:100F3000D105F0F060E270E0C8010E94B903005EE4
:100F40001F4FA097F4CF80913602909137020196FF
:100F50009093370280933602C1E10E946803803289
:100F600069F484E10E94ED028C2F0E94ED0208C01A
:100F7000BE01C8010E94B903C0E1EFCF0E94120375
:100F80002114310409F46BCD0E946A02882309F40C
:100F900066CD0E94000063CD0E946803082F0E9466
:100FA0006803D82F0E946803C82F0E94680380320C
:100FB00019F00E941203E4CF10E0102F00270D0F4C
:100FC000111D84E10E94ED02C63419F5F12CE12CCB
:100FD000E016F1060CF021CFC0913402D091350219
:100FE00020E04C2F6D2F80E20E943A030E94ED0218
:100FF00020E04C2F6D2F88E20E943A030E94ED0200
:101000002196D0933502C093340222E0E20EF11C07
:10101000DFCFC534B1F4C0913402D0913502CC0F8A
:10102000DD1F0C0F1D1F0C171D0709F4F6CE2FEF47
:101030004C2F6D2F80EA0E943A030E94ED02219608
:10104000F2CF81E192CF84E090E00E94A30320914F
:1010500036014091350160913401809133010E9445
:101060003A03EDCE109237021092360260E08BE028
:101070000E94580160E08DE00E94580160913302A7
:1010800081E068278AE00E94B50060E08AE00E9463
:1010900058011092390210923802ACCE0E946803B7
:1010A000803209F051CD84E10E94ED0220E040E061
:1010B00060E080E30E943A030E94ED0220E041E0FC
:1010C00060E080E30E943A030E94ED0220E042E0EB
:1010D00060E080E30E943A030E94ED029ECE809180
:1010E0003602909137020196909337028093360230
:1010F0000E946803803209F030CD82E136CFE7E408
:10110000F2E01382128288EE93E0A0E0B0E08483E4
:101110009583A683B78386E091E09183808385ECF5
:1011200090E09587848784EC90E09787868780ECB1
:1011300090E0918B808B81EC90E0938B828B82ECA2
:1011400090E0958B848B86EC90E0978B868B118E4C
:10115000128E138E148E0895EE0FFF1F0590F491DA
:10116000E02D0994F894FFCF088000000000A00251
:1011700000022D02F2025E023C0250024156522051
:04118000495350007F
:107E0000112484B714BE81FFF0D085E080938100F7
:107E100082E08093C00088E18093C10086E0809377
:107E2000C20080E18093C4008EE0C9D0259A86E02C
:107E300020E33CEF91E0309385002093840096BBD3
:107E4000B09BFECF1D9AA8958150A9F7CC24DD24C4
:107E500088248394B5E0AB2EA1E19A2EF3E0BF2EE7
:107E6000A2D0813461F49FD0082FAFD0023811F036
:107E7000013811F484E001C083E08DD089C08234E0
:107E800011F484E103C0853419F485E0A6D080C0E4
:107E9000853579F488D0E82EFF2485D0082F10E0AE
:107EA000102F00270E291F29000F111F8ED06801E7
:107EB0006FC0863521F484E090D080E0DECF843638
:107EC00009F040C070D06FD0082F6DD080E0C81688
:107ED00080E7D80618F4F601B7BEE895C0E0D1E017
:107EE00062D089930C17E1F7F0E0CF16F0E7DF06D8
:107EF00018F0F601B7BEE89568D007B600FCFDCFD4
:107F0000A601A0E0B1E02C9130E011968C91119780
:107F100090E0982F8827822B932B1296FA010C0160
:107F200087BEE89511244E5F5F4FF1E0A038BF0790
:107F300051F7F601A7BEE89507B600FCFDCF97BE46
:107F4000E89526C08437B1F42ED02DD0F82E2BD052
:107F50003CD0F601EF2C8F010F5F1F4F84911BD097
:107F6000EA94F801C1F70894C11CD11CFA94CF0C13
:107F7000D11C0EC0853739F428D08EE10CD085E9AC
:107F80000AD08FE07ACF813511F488E018D01DD067
:107F900080E101D065CF982F8091C00085FFFCCF94
:107FA0009093C60008958091C00087FFFCCF809118
:107FB000C00084FD01C0A8958091C6000895E0E648
:107FC000F0E098E1908380830895EDDF803219F02E
:107FD00088E0F5DFFFCF84E1DECF1F93182FE3DFCA
:107FE0001150E9F7F2DF1F91089580E0E8DFEE27F6
:047FF000FF270994CA
:027FFE00040479
:00000001FF
